:020000040800F2
:10000000182200209D0100082B0F00088F0E000809
:10001000290F00085902000899110008000000008B
:1000200000000000000000000000000005010008C2
:100030005B0200080000000049010008650F00088D
:10004000B7010008B7010008B7010008B7010008B0
:10005000B7010008B7010008B7010008B7010008A0
:10006000B7010008B7010008B7010008B701000890
:10007000B7010008B7010008B7010008B701000880
:10008000B7010008B7010008B7010008B701000870
:10009000B7010008B7010008B7010008B701000860
:1000A000B7010008B7010008B7010008B701000850
:1000B000F10F0008B7010008B7010008B7010008F8
:1000C000B7010008B7010008B7010008B701000830
:1000D000B7010008B7010008B7010008B701000820
:1000E000B7010008B7010008B7010008DFF810D019
:1000F00000F0A0F800480047ED140008AFF30080BE
:1001000018220020224B19680868B0E8F00F80F32D
:100110000988BFF36F8F4FF0000080F311884EF015
:100120000D0E70470000000006480068006880F36C
:10013000088862B661B6BFF34F8FBFF36F8F00DFE1
:1001400000BF00BF08ED00E0EFF30980BFF36F8F41
:100150000F4B1A6820E9F00F106008B54FF05000FF
:1001600080F31188BFF34F8FBFF36F8F02F0EEF86B
:100170004FF0000080F31188BDE808401968086856
:10018000B0E8F00F80F30988BFF36F8F704700BFAE
:1001900014000020EFF305807047000006488047F8
:1001A00006480047FEE7FEE7FEE7FEE7FEE7FEE75C
:1001B000FEE7FEE7FEE7FEE7ED0F0008ED000008B2
:1001C00040EA01039B0703D009E008C9121F08C0D9
:1001D000042AFAD203E011F8013B00F8013B521E59
:1001E000F9D27047D2B201E000F8012B491EFBD2D0
:1001F00070470022F6E710B513460A460446194632
:10020000FFF7F0FF204610BD30B50B460146002039
:100210002022012409E021FA02F59D4205D303FAC8
:1002200002F5491B04FA02F52844151EA2F1010249
:10023000F1DC30BD064C074D06E0E06840F00103FC
:1002400094E8070098471034AC42F6D3FFF752FF0A
:100250002C3000084C300008FEE7704772B6FEE70D
:100260002DE9F84FDFF8B8910024A9F1040B2346DB
:100270000F2709F1040AABF1040EC9E00125A540DE
:100280002A40AA427DD1674ED1F804C0ACEB0608E3
:10029000B44532D014DCBCF1030F3AD009DCBCF118
:1002A000000F2AD0BCF1010F1CD0BCF1020F31D1DC
:1002B0001DE0BCF1110F17D0BCF1120F2AD119E0CB
:1002C000B8F5881F19D006DCB8F5803F15D0B8F511
:1002D000801F1FD111E0B8F5001F0ED0B8F5041F24
:1002E00018D10AE0CB6815E0CB681B1D12E0CB6883
:1002F00008330FE0CB680C330CE08B682BB1012B7B
:100300004FF0080303D0456104E0042302E00561D7
:1003100000E00023FF2A01D8064601E000F10406B0
:100320004FEA840501D9A5F12005D6F8008007FA27
:1003300005FC28EA0C0803FA05F548EA0508C6F8A2
:1003400000804D68ED0062D5374DAE6946F001067C
:10035000AE61AD6924F0030605F001050095334D4B
:1003600006EB050CDCF80850A607360F07FA06F86E
:1003700025EA0805DFF8B880404503D14FF00008B2
:1003800017E044E0DFF8AC80404502D14FF00108AF
:100390000FE0DFF8A480404502D14FF0020808E0EA
:1003A000DFF89880404502D14FF0030801E04FF09C
:1003B000040808FA06F848EA0508CCF808804D68F1
:1003C000D9F80060ED024D4601D5164300E0964392
:1003D0002E604D68DAF80060AD02554601D516432F
:1003E00000E096432E604D68DBF80060AD035D468B
:1003F00001D5164300E096432E604D68DEF800609C
:10040000ED03754601D5164300E096432E60641C4B
:100410000D682A46E5407FF431AFBDE8F88F000053
:1004200008040140000011100010024000000140CB
:1004300000080140000C0140001001400014014080
:10044000014880687047000004000020024881686D
:10045000027811448160704704000020074810B5FD
:10046000016841F010010160032000F09DF80F20A9
:1004700000F006F800F050F8002010BD0020024007
:1004800030B50546204887B0C16941F00101C1611E
:10049000C06906A900F00100009001A800F02CF945
:1004A0000498B8B100F048F9400018494FF0804274
:1004B000B0FBF1F11648491E0260416040F2E7329C
:1004C0000021C0E903218160816100F011FB04007B
:1004D00003D015E000F030F9E7E70D4800F036FBF7
:1004E00004000DD11C2000F031F8102D07D200229D
:1004F00029461C2000F038F80648056000E0012479
:1005000007B0204630BD00000010024040420F00FE
:10051000F0000020080000200B4882B0816941F003
:1005200001018161816901F001010091C16941F01E
:100530008051C161C069002200F0805000900F21FD
:10054000901E02B000F010B800100240002809DB35
:1005500000F01F02012191404009800000F1E020DD
:10056000C0F8001170470000F0B40E4B1B680C4639
:10057000C3F30223C3F10705042D00D90425191D77
:10058000072901D2002300E0DB1E012606FA05F14F
:10059000491E214099409E40761E16403143F0BCD2
:1005A00000F026BE0CED00E0064900F007020868E6
:1005B0004FF6FF03184040EA0220034A1043086048
:1005C000704700000CED00E00000FA052DE9F0474F
:1005D0000F46050061D0434E306800F00700B84276
:1005E00009D2306820F0070038433060306800F0EE
:1005F0000700B84251D128683B4C810712D540070B
:1006000003D5606840F4E06060602878000703D597
:10061000606840F4605060606068A96820F0F00095
:10062000084360602878C00728D06868012810D087
:100630002168022810D0890700292EDA616821F08C
:10064000030101436160FFF7FBFE804641F28839F8
:100650000DE021688903EFE78901EDE7FFF7F0FE80
:10066000A0EB0801494502D90320BDE8F087606886
:10067000696800F00C00B0EB810FEFD1306800F03A
:100680000700B8420BD9306820F0070038433060CB
:10069000306800F00700B84201D00120E5E7287873
:1006A000400705D56068E96820F4E06008436060B1
:1006B0002878000706D56068296920F4605040EA70
:1006C000C100606000F058F86168084AC1F3031186
:1006D000515CC8400649086006480068FFF7D0FE34
:1006E0000020C2E70020024000100240063000084F
:1006F00010000020080000200F2202600C4A5368FE
:1007000003F003034360536803F0F003836053680E
:1007100003F4E063C36052684FF4E06303EAD2027B
:1007200002610448006800F007000860704700009C
:100730000010024000200240044805490068496852
:10074000044AC1F30221515CC840704710000020E8
:100750000010024016300008044805490068496846
:10076000044AC1F3C221515CC84070471000002008
:1007700000100240163000080F4A516801F00C00CA
:10078000042803D0082803D00C4870470C48704751
:100790000C48C1F38343C903C05C0AD55168094AB8
:1007A000C1F34041921E515C054A5043B0FBF1F049
:1007B00070470549484370470010024000127A0014
:1007C000001BB700F62F000800093D002DE9F84F87
:1007D000040070D02078C04DC00749D06868C0F3CD
:1007E0008100012807D06868C0F38100022809D180
:1007F0006868C00306D52868800339D5606800287A
:10080000E7D035E06068B0F5803F0BD010B1B0F5AF
:10081000A02F11D0286820F480302860286820F4A8
:10082000802002E0286840F480302860606890B141
:10083000FFF706FE06460AE0286840F4802028609C
:10084000F0E700BFFFF7FCFD801B642873D8286821
:100850008003F7D50CE0FFF7F3FD064605E000BF87
:10086000FFF7EEFD801B6428F0D828688003F7D4DA
:1008700020789A4E80074FF001094FF0000839D5D3
:10088000686810F00C0F07D06868C0F38100022878
:1008900009D16868C00306D42868800714D5206988
:1008A000012808D110E02069B0B1C6F80090FFF728
:1008B000C7FD074605E00AE1FFF7C2FDC01B02289D
:1008C000C4D828688007F7D52868616920F0F80047
:1008D00040EAC10028600DE0C6F80080FFF7B0FDD7
:1008E000074604E0FFF7ACFDC01B022823D82868A8
:1008F0008007F7D4207800072CD57948A169D9B1B1
:10090000C0F80090FFF79CFD074604E0FFF798FD54
:10091000C01B02280FD8686A8007F7D571484FF4CA
:10092000FA510068B0FBF1F0009000BF0098411E42
:100930000091FAD20EE080E0C0F80080FFF780FD61
:10094000074604E0FFF77CFDC01B022875D8686AE3
:100950008007F7D42078400760D5E8690027C000F9
:1009600008D4E86940F08050E861E869012700F0A8
:10097000805000905C480168C90513D40168834623
:1009800041F480710160FFF75BFD824606E000BF25
:10099000FFF756FDA0EB0A0064284ED8DBF80000F4
:1009A000C005F5D5E06801280AD008B1052813D0A4
:1009B000286A20F001002862286A20F0040002E082
:1009C000286A40F001002862E06841F2883B98B153
:1009D000FFF736FD82460BE0286A40F004002862EB
:1009E000EEE700BFFFF72CFDA0EB0A0159455AD8EE
:1009F000286A8007F6D50CE0FFF722FD824605E065
:100A0000FFF71EFDA0EB0A0159454CD8286A800764
:100A1000F6D41FB1E86920F08050E861E06988B33E
:100A20006968C1F38101022944D00228C6F86080B8
:100A300004D0FFF705FD044638E034E0FFF700FD81
:100A4000074604E0FFF7FCFCC01B02282BD82868EF
:100A50008001F7D4206AB0F5803F05D16868A168AD
:100A600020F4003008436860D4E90801084369684D
:100A700021F4741108436860C6F86090FFF7E0FC49
:100A8000044606E025E000BFFFF7DAFC001B022861
:100A900009D828688001F7D51BE000BFFFF7D0FC1C
:100AA000001B022802D90320BDE8F88F28688001C6
:100AB000F4D40EE00128F7D06868226A00F480318F
:100AC000914204D1616A00F47010884201D0012083
:100AD000EAE70020E8E70000001002400000424280
:100AE00080044242100000200070004070477047B0
:100AF00010B5040003D094F83D0010B107E00120C8
:100B000010BD002084F83C00204600F01EF80220B2
:100B100084F83D00211D206800F070FA012084F85F
:100B2000460084F83E0084F83F0084F8400084F8D2
:100B3000410084F8420084F8430084F8440084F8BB
:100B4000450084F83D00002010BD704790F83D102E
:100B5000012901D001207047022180F83D10016871
:100B6000CA6842F00102CA6000680B49884208D096
:100B7000B0F1804F05D00949884202D00849884227
:100B800004D1816801F00701062903D0016841F012
:100B90000101016000207047002C0140000400406A
:100BA00000080040704770B50446006801694FF0C6
:100BB0000005C943890715D4C168C943890711D401
:100BC000E91E0161012020772068806980072046A6
:100BD00002D0FFF7E7FF04E000F098F8204600F0AD
:100BE00096F8257720680169C943490717D4C16879
:100BF000C943490713D46FF0040101610220207733
:100C00002068806910F4407F204602D0FFF7CAFFB9
:100C100004E000F07BF8204600F079F825772068A2
:100C20000169C943090716D4C168C943090712D429
:100C30006FF008010161042020772068C0698007F7
:100C4000204602D0FFF7AEFF04E000F05FF8204638
:100C500000F05DF8257720680169C943C90617D4FB
:100C6000C168C943C90613D46FF01001016108209F
:100C700020772068C06910F4407F204602D0FFF73B
:100C800091FF04E000F042F8204600F040F825779C
:100C900020680169C943C90708D1C168C943C907A8
:100CA00004D1891E0161204600F032F820680169F4
:100CB000C943090609D4C168C943090605D46FF0C0
:100CC000800101612046FFF711FF20680169C943D7
:100CD000490609D4C168C943490605D46FF04001EB
:100CE0000161204600F01BF820680169C9438906AC
:100CF0000BD4C168C943890607D46FF02001016194
:100D00002046BDE87040FFF7F2BE70BD70477047E7
:100D10000068B0F1804F01D1FFF798BB7047704772
:100D200070B5040004D094F84100002510B106E02D
:100D3000012070BD84F84050204600F023F82420A4
:100D400084F841002068C16821F40051C160204648
:100D500000F08AF92068016921F49041016120685E
:100D6000416921F02A0141612068C16841F40051C4
:100D7000C1606564202084F8410084F84200656306
:100D8000002070BD30B585B0002400940194029419
:100D9000039400681449884224D11448816941F4BD
:100DA00080418161816901F480410491816941F050
:100DB0000401816180690E4D00F0040004904FF43D
:100DC000007000900220019003200390694628469D
:100DD000FFF746FA2815CDE9000469462846029433
:100DE000FFF73EFA05B030BD003801400010024068
:100DF000000801402DE9F843044690F841001F46E1
:100E000016460D46202802D00220BDE8F8837DB1A9
:100E100076B100206064212084F84100FFF710FBC8
:100E2000A6848046E684A068B0F5805F02D003E027
:100E30000120EAE7206910B12E4600250EE00026C9
:100E40000CE08021204600F06BF9A0B9AEB116F895
:100E5000010B21684860E08C401EE084E08C434632
:100E60004FF0000200970028EBD14FF040012046E0
:100E700000F056F930B10320C7E735F8020BC0F394
:100E80000800E6E7202084F841000020BDE7FEE7E7
:100E900010B5054A0021054800F074FB04490860BC
:100EA000BDE8104000F0B0BAD02F0008610F000874
:100EB000000000200D4808B5816941F010018161F2
:100EC000816901F010010091816941F02001816187
:100ED000816901F020010091816941F00401816183
:100EE000806900F00400009008BD0000001002407E
:100EF0000C4810B50A4901604FF4E131416000210E
:100F000081600C22C160C0E904128161C161FFF7F8
:100F100007FF002803D0BDE81040FFF79FB910BDC0
:100F200000380140A8000020FEE7FEE710B54FF0B2
:100F3000FF3101F00DFD012804D0BDE8104002A0F2
:100F400000F046B910BD00007853656D6170686FA0
:100F5000726554616B65206572726F72210D0A00B3
:100F6000FEE7000010B5502080F31188BFF34F8FCB
:100F7000BFF36F8F01F04EFE18B104494FF080505F
:100F80000860002080F3118810BD000004ED00E02F
:100F900030B58FB028216846FFF72BF914210AA835
:100FA000FFF727F901210804CDE90010002402947D
:100FB00002250491CDE90750000109906846FFF72A
:100FC00005FC08B172B6FEE70F20CDE90A054FF423
:100FD0008060CDE90C4002210AA80E94FFF7F6FAD2
:100FE000002801D072B6FEE70FB030BD7047000098
:100FF0000148FFF7D8BD0000F0000020F0B50268FE
:10100000164B174C174D4FF08047984205D0B84209
:1010100003D0A04201D0A84203D122F070064A6852
:101020003243984205D0B84203D0A04201D0A84232
:1010300003D122F44074CA6822434C6922F0800232
:10104000224302608A68C2620A688262984201D1C1
:101050000969016301214161F0BD0000002C0140DC
:10106000000400400008004070B5044600680169B3
:10107000E26821F44051114301612169A0680843ED
:10108000616908432168CA6841F20C639A430243CC
:10109000CA6020684169A26921F44071114341612D
:1010A0001E492068884202D1FFF756FB01E0FFF796
:1010B00043FB00EBC00101EB00126068642180007B
:1010C000B2FBF0F3B3FBF1F36FF018067343B2FB1E
:1010D000F0F5B2FBF0F605EB8305322303EB0515C3
:1010E000B5FBF1F5B6FBF1F605F0F00505EB0615DD
:1010F000B2FBF0F6B2FBF0F0B0FBF1F06FF01802CB
:10110000504306EB800003EB0010B0FBF1F02168C8
:1011100000F00F002844886070BD000000380140D6
:101120002DE9F041984617460E460446069D27E0F5
:10113000681C25D02DB1FFF783F9A0EB0800A84269
:101140001ED920680C3050E8001F21F4D07140E80F
:101150000012002AF5D12068143050E8001F21F059
:10116000010140E80012002AF5D1202084F8410056
:1011700084F84200002084F840000320BDE8F0819C
:101180002068006836EA000004D00020B842CFD0C2
:101190000020F3E70120F9E7FEE70000002310B587
:1011A0001A46194601F01CFA012804D0BDE8104087
:1011B00001A000F00DB810BD7853656D6170686FC7
:1011C000726547697665206572726F72210D0A003B
:1011D0000FB4054B10B503A9044A029800F028F893
:1011E00010BC5DF814FB0000ED130008A400002003
:1011F0000907090E002804DB00F1E02080F8001444
:10120000704700F00F0000F1E02080F8141D7047D7
:1012100002E008C8121F08C1002AFAD170477047BF
:10122000002001E001C1121F002AFBD1704700001D
:101230002DE9FF4F8BB09A460F460546002606E083
:1012400025280BD052460D9990476D1C761C2878A6
:101250000028F5D10FB03046BDE8F08F0024A0463D
:101260000122604900E0044315F8013F203B02FAE7
:1012700003F00842F7D128782E2817D115F8010F6E
:1012800044F004042A280ED06FF02F022878A0F131
:10129000300109290AD808EB880102EB410100EB73
:1012A00001086D1CF2E757F8048B6D1C287869283B
:1012B0003ED006DC0028CDD063280BD0642804D1B2
:1012C00036E0732810D075284BD052460D999047C0
:1012D000761C85E017F8040B8DF8000000208DF8CF
:1012E0000100E946012003E057F8049B4FF0FF306E
:1012F00061074FF0000401D40AE0641C44450DDA94
:101300008442FADB19F804100029F6D106E0641CC7
:101310008442FCDB19F804100029F8D1264404E0CB
:1013200019F8010B52460D999047641EF8D257E008
:1013300001CF4FF00A0B002802DA40422D2102E0D3
:10134000210504D52B218DF82410012103E0E107AC
:1013500005D02021F7E70DF1200908910CE00021CC
:10136000F9E701CF4FF00A0BF9E75946FEF74CFFBA
:1013700001F1300209F8012D0028F6D1ADEB09008A
:1013800000F1200B600701D44FF00108D84502DDC1
:10139000A8EB0B0000E000208046002406E009A82E
:1013A0005246005D0D999047641C761C0898844253
:1013B000F5DB04E0302052460D999047761CB8F1D9
:1013C0000001A8F10108F5DC05E019F8010B52460F
:1013D0000D999047761CBBF10001ABF1010BF4DCD9
:1013E0006D1C34E7092801007047000013B54FF069
:1013F000FF342346012269460248FFF7FBFC2046E2
:101400001CBD0000A80000201CB50121084601F009
:101410002FF8164CA06098B10021012001F028F8A7
:10142000E06078B120461824CDE9004000238022F6
:101430000FA1114801F082FB012805D00FA010E098
:1014400014A00EE019A00CE008480023001DCDE90F
:10145000004080221BA11D4801F070FB012804D030
:101460001BA0BDE81C40FFF7B3BE1CBD94000020CC
:101470007461736B41000000FD1E000863726561BA
:101480007465207461736B41206572726F72210DF7
:101490000A0000006372656174652073656D617098
:1014A0006841206572726F72210D0A006372656176
:1014B00074652073656D61706842206572726F7229
:1014C000210D0A007461736B420000001D1F0008AB
:1014D000637265617465207461736B42206572721A
:1014E0006F72210D0A00000000207047FEF7B6FF62
:1014F000FFF74EFDFFF7DEFCFFF7FAFC00F006F801
:10150000FFF7C6FC00F01EF8FEE70000EFF30580D1
:1015100058B9EFF3108040B909490868022801D092
:1015200030B109E0EFF3118030B16FF00500704782
:1015300001200860002070474FF0FF307047000026
:101540006C00002010B5EFF3058060B9EFF3108058
:1015500048B90B490868022802D0012806D00BE0E0
:10156000EFF3118040B16FF0050010BD022008605C
:1015700000F09EFE002010BD4FF0FF3010BD0000B7
:101580006C000020F0B585B04FEA01034FF0000475
:10159000EFF305810394A1BBEFF3108189BB2149CF
:1015A0000968022902D1EFF3118151BB48B38026AB
:1015B00018218DF8104004AD42B3176807B13D46BD
:1015C00097691FB139467F1E382F02D21779FF075E
:1015D00002D0002005B0F0BD576907B1BE08D2F8AF
:1015E00008C0BCF1000F0DD0D468602C18D312696C
:1015F0003AB137B18DE806103246294601F0CBFAF0
:1016000003900DE0D7685FB912694AB903AACDE922
:101610000012B2B2294601F091FA012800D00394D9
:101620000398D7E76C0000202DE9F041134C0F46DA
:10163000054666692068001D00F080FC681C07D123
:1016400037B12168BDE8F0410D48091D00F0C6BC66
:1016500020683544B5424560216805D2A068BDE8E0
:10166000F041091D00F0A2BC6068091D00F09EFC5D
:10167000206B854200D22563BDE8F0811400002074
:10168000280600202DE9F041054600F0B3FC2D4C62
:101690002069401C206120682B4F10B1E06930B3F5
:1016A0002BE025602069012827D1002606EB860063
:1016B00007EB800000F06CFC761C382EF6D3234834
:1016C00000F066FC2148143000F062FC1F4828300E
:1016D00000F05EFC1D483C3000F05AFC1B485030C6
:1016E00000F056FC194860601430A06005E02068E6
:1016F000E96AC06A884200D82560E06A401CE0625E
:101700006864E86AA169884200D9A06100EB8000A2
:1017100007EB8000291D00F061FC00F08BFCE06904
:1017200000280CD02068E96AC06A884207D20849BC
:101730004FF080500860BFF34F8FBFF36F8FBDE84D
:10174000F08100001400002078010020D80500205E
:1017500004ED00E038B500F04DFC104CA068C8B9AD
:101760000F4800F015FC0E48143000F011FC0C4836
:101770002060143060600A4B00202833009003F191
:10178000540210210A2000F0B4FEA06010B105A19F
:1017900000F0CEFCBDE8384000F04CBC5800002002
:1017A0003C060020546D72510000000030B4026C01
:1017B0000B46002A0BD0C1681144C1604468A142A5
:1017C00001D30168C16030BC1846FEF7F9BC30BCDB
:1017D00070472DE9F041856B174604460026026CE0
:1017E00082B1C7B1E068FEF7EBFCE168206C091A32
:1017F000E1602268914202D26168081AE060022F1B
:1018000016D017E02068A8B9606801F067FA0646AC
:10181000002060600EE0A068FEF7D2FC216CA0689A
:101820000844A0606168884204D32068A06001E099
:1018300005B16D1E6D1CA5633046BDE8F08110B585
:10184000044690F85D0058B101280CD002280FD052
:10185000502080F31188BFF34F8FBFF36F8FFEE7E7
:10186000206B00F0FBFB2046BDE8104000F0F6BB0B
:1018700010BD000010484FF48051420706D0C01D33
:101880000D4920F00700411AC1F580510B4A002391
:101890000144C2E900030839103A21F00701116040
:1018A0004B600B600B1AC0E9001393604FF00040CF
:1018B0005360D06070470000180E002080000020A8
:1018C000144E154CA6F29C474FF08058DFF84C9010
:1018D00012E000BF00F08EFBF068C568281D00F024
:1018E0002DFB2069401E2061E068401EE06000F092
:1018F000A1FB2846FFF7A3FFE0680028EAD138687B
:101900000128F9D9C9F80080BFF34F8FBFF36F8F5B
:10191000F2E70000140600201400002004ED00E0AF
:1019200070B51D46049C61B1C4F80020C4E90F01E4
:101930000121204600F010FE84F850500020A064E1
:1019400070BD2460F2E72DE9F0470E46DDE9098419
:101950001746824691009946089DA522206BFEF706
:1019600041FC6FF00301206B01EB8701084420F07C
:101970000707780707D0502080F31188BFF34F8FF7
:10198000BFF36F8FFEE72218315C82F83410315CB0
:1019900011B1401C1028F6D3002684F84360382D7E
:1019A00000D33725E562C4E91356201D00F0FBFA89
:1019B00004F1180000F0F7FA2461C5F13800646200
:1019C000A0616665A66584F85C604A465146384663
:1019D00000F082FA2060B8F1000F01D0C8F8004092
:1019E000BDE8F08730B5114900E011460A6882422F
:1019F000FBD34B685C18844203D1406818444860AC
:101A0000084643681C18944209D1084C103C2468CD
:101A1000A24209D052681A4442600A681268026001
:101A2000814200D0086030BD0460F9E780000020EA
:101A300070B5002441600B4D0061914206D8D11A67
:101A40008269914206D2011D686807E09A4203D27A
:101A5000994201D3012403E0011D286800F0A6FA91
:101A6000204670BD5800002010B5044600F0C2FAB0
:101A7000A06B28B15FF0000400F0DCFA204610BD36
:101A80000124F9E773B500260098846C5CB1A26B61
:101A9000E06B82420FD3502080F31188BFF34F8F49
:101AA000BFF36F8FFEE7502080F31188BFF34F8F95
:101AB000BFF36F8FFEE7A26B82420CD294F94550C0
:101AC0000A4669462046FFF784FE0646681C04D095
:101AD0006D1C84F8455030467CBD606A0028FAD001
:101AE00004F1240001F076F90028F4D00126F2E791
:101AF00030B589B0304D55E00498002806DADDE9AC
:101B00000601059A9047049800284BDB069C606903
:101B100010B1201D00F012FA02A800F0B9F8024638
:101B200004980A283ED2DFE800F00505053D263777
:101B300005053D260598A169034601442046FFF7A7
:101B400077FF00B3616A20468847E069012829D100
:101B5000002000900598A1690023421819462046EC
:101B600001F002FA78B9502080F31188BFF34F8F4B
:101B7000BFF36F8FFEE70598A06128B18118134667
:101B80002046FFF755FF0DE0502080F31188BFF38A
:101B90004F8FBFF36F8FFEE794F82C0010B92046EB
:101BA00000F05CFA002204A9A86800F035FE0028C5
:101BB000A2D109B030BD0000580000202DE9FC4141
:101BC0000F46054600F0BAFB01A800F061F8044694
:101BD000019818B101F036F9BDE8FC81224EAFB191
:101BE00070680068A8B30027291B3A46B06800F067
:101BF000B3FA01F027F90028EED11C494FF08050CC
:101C00000860BFF34F8FBFF36F8FE5E7A542EBD8B6
:101C100001F018F930682746C068C468201D00F03C
:101C20008DF9E069012810D1A0692B4641193A4687
:101C30002046FFF7FDFE40B100200346014600901C
:101C40002A46204601F090F920B1616A2046884773
:101C5000C2E707E0502080F31188BFF34F8FBFF336
:101C60006F8FFEE70127BFE75800002004ED00E07A
:101C700006484168096829B14168C968C968496866
:101C8000016370474FF0FF31FAE7000014000020B5
:101C900070B5054600F0B8FF064E04463069844230
:101CA00003D200F009F8012000E00020286020465F
:101CB000346170BD58000020F8B5194D1FE0C068B0
:101CC000C4680668201D00F039F9616A204688471B
:101CD000E069012813D1A0693044B04206D92461DB
:101CE0006060211D286800F061F908E000200346CB
:101CF000014600903246204601F036F938B1286896
:101D000001680029DBD16968C5E90010F8BD5020E1
:101D100080F31188BFF34F8FBFF36F8FFEE7000092
:101D20005800002008484068401C4FF0500080F3E5
:101D3000118804D0BFF34F8FBFF36F8FFEE7BFF35F
:101D40004F8FBFF36F8FFEE788000020074C20689D
:101D5000016841B1C0680021D0F80000FFF72EFFF4
:101D6000FFF7C6FEF3E701210020F7E75800002047
:101D70002DE9F041044600F03DF994F9455004F195
:101D8000240610E0A06C20B100212046FFF77AFE67
:101D900004E0606A48B1304601F01CF808B100F078
:101DA00005FA6D1E6DB2002DECDC4FF0FF3684F8A5
:101DB000456000F03FF900F01DF994F9445004F13A
:101DC000100709E0206948B1384601F003F808B16E
:101DD00000F0ECF96D1E6DB2002DF3DC84F8446068
:101DE000BDE8F04100F026B92DE9F0410546002795
:101DF00000F0A4FA314E306808B9FFF73BFDF068F7
:101E000005424BD1C5B3083568070ED005F0070071
:101E1000C0F108000544680707D0502080F31188FE
:101E2000BFF34F8FBFF36F8FFEE72DB3706885420E
:101E300034D82248103001460C6801E020460C4698
:101E40006168A94202D221680029F7D131688C4229
:101E500024D007682168016060680837411B102999
:101E60000FD96019420708D0502080F31188BFF3C2
:101E70004F8FBFF36F8FFEE710E041606560FFF7A3
:101E8000B1FD61687068401A7060B268904200D21B
:101E9000B060F06801430020C4E9000100F0D2FF07
:101EA000780707D0502080F31188BFF34F8FBFF31E
:101EB0006F8FFEE73846BDE8F0810000700000201B
:101EC0000449086818B10868026D521C0265086868
:101ED000704700001400002010B5031F4FF08074FD
:101EE0001C601B1F21F001011960191F024B0B60C0
:101EF000143940380A6010BD251D0008054CA06843
:101F0000FFF714F804A0FFF763F9E068FFF746F95C
:101F1000F5E7000094000020410D0A00054CE06840
:101F2000FFF704F804A0FFF753F9A068FFF736F9AC
:101F3000F5E7000094000020420D0A00D0E90132CC
:101F400001699A60D0E901235A604A68824201D14E
:101F500082684A60002202610868401E08600868C2
:101F600070470000034B036003F1600008608020AD
:101F70001060704758070020044B036003F16000B5
:101F800008604FF48070106070470000B8090020AE
:101F900000F108014FF0FF32C0E90112C160016198
:101FA00000210160704700210161704730B50B6866
:101FB0005A1C02D000F1080202E0026904E0224645
:101FC000546825689D42FAD953684B6099608A60CD
:101FD000516008610168491C016030BD42684A6077
:101FE00093688B6093685960916008610168491C2F
:101FF00001607047502080F31188BFF34F8FBFF30B
:102000006F8F0A494868401C486001280CD1084875
:10201000006810F0FF0F07D0502080F31188BFF345
:102020004F8FBFF36F8FFEE77047000088000020DE
:1020300004ED00E00849486828B1401E486001D11D
:1020400080F311887047502080F31188BFF34F8FC1
:10205000BFF36F8FFEE700008800002070B50028F6
:1020600027D0144DA0F108046168E868014207D147
:10207000502080F31188BFF34F8FBFF36F8FFEE7BF
:1020800022683AB1502080F31188BFF34F8FBFF31D
:102090006F8FFEE78143616000F050F96068696806
:1020A000084468602046FFF79DFCBDE8704000F0E2
:1020B000C9BE70BD700000204FF0E020002101611A
:1020C000816105494FF47A720968B1FBF2F1491E4A
:1020D00041610721016170471000002010B5FEF733
:1020E00059F8114910280ED300F1E02090F8F003C0
:1020F0000A78904207D2502080F31188BFF34F8FA7
:10210000BFF36F8FFEE709480068896800F4E0605C
:10211000884207D9502080F31188BFF34F8FBFF357
:102120006F8FFEE710BD0000880000200CED00E07E
:1021300010B5084B002200BF53F832401CB1521CAE
:10214000082AF9D310BD43F8321003EBC2014860EE
:1021500010BD00003801002070B515460E4604463B
:10216000FFF748FF94F944100020491C01D184F87E
:10217000440094F94510491C01D184F84500FFF74B
:1021800059FFA06B28B92A46314604F1240000F01B
:102190002BF82046BDE87040FFF7EABD02498A6A85
:1021A0000260496941607047140000200149012024
:1021B000486270471400002010B50C4650B1094920
:1021C00009681831FFF7F2FE2046BDE810400121F2
:1021D000FFF72ABA502080F31188BFF34F8FBFF367
:1021E0006F8FFEE71400002070B514460D4668B1ED
:1021F0000A4909681831FFF7F1FE0CB14FF0FF35BD
:1022000021462846BDE87040FFF70EBA502080F303
:102210001188BFF34F8FBFF36F8FFEE714000020CC
:1022200070B504003ED0226DA2B1E06C884200D3AC
:102230000146E06A884235D0012A33D11A4D2A6816
:1022400094420FD1502080F31188BFF34F8FBFF31A
:102250006F8FFEE7502080F31188BFF34F8FBFF3DD
:102260006F8FFEE7E162A269002A02DBC1F138014B
:10227000A1610E4E00EB8000616906EB8000814297
:1022800010D1201DFFF75AFEE06AA969884200D9E3
:10229000A86100EB800006EB8000211DBDE87040C6
:1022A000FFF79CBE70BD00001400002078010020E4
:1022B00030B587B00024039405AA04A903A80494A8
:1022C000FFF750FEDDE903010094CDE90110002382
:1022D00016A11848059A00F05EFC174D00286863A7
:1022E00021D000F011FE012809D0401C1BD1502044
:1022F00080F31188BFF34F8FBFF36F8FFEE750203D
:1023000080F31188BFF34F8FBFF36F8F4FF0FF3013
:1023100028630120E8616C61FFF766F807B0BDE84B
:10232000304000F051B807B030BD000049444C4582
:1023300000000000C1180008140000200248816B52
:10234000491C8163704700001400002010B51C4C2C
:10235000A06B10B10120606210BD00206062FFF729
:10236000C3F82064E26B904204D92168821A4B6D55
:102370001A444A65E063A069124901E0B8B1401E01
:1023800000EB800251F82220002AF7D000EB8002F7
:1023900001EB820101F108034A6852684A609A42DF
:1023A00001D152684A60D1682160A06110BD5020FF
:1023B00080F31188BFF34F8FBFF36F8FFEE70000EC
:1023C00014000020780100201CB5264908780190EF
:1023D000FF20087008788DF800009DF800009DF837
:1023E000002000F0F000904207D0502080F31188C8
:1023F000BFF34F8FBFF36F8FFEE79DF800001A4BBE
:1024000000F0500018700720986005E09DF800204B
:1024100052008DF80020401E9DF800201206F5D4D1
:102420009860032807D0502080F31188BFF34F8FA6
:10243000BFF36F8FFEE74FF440709860019808700B
:102440000A48016841F470010160016841F070417F
:102450000160FFF731FE00205860FDF765FE0020A7
:102460001CBD000000E400E08800002020ED00E03A
:1024700010B50C4648B184420FD9502080F3118822
:10248000BFF34F8FBFF36F8FFEE7502080F31188AB
:10249000BFF34F8FBFF36F8FFEE70222002100F0E2
:1024A00004F8002800D0846310BDF8B517460E4626
:1024B000050014D0DEB105FB06F05430FFF794FCA4
:1024C00004000AD0002084F8460004F154023B4680
:1024D000314628460094FFF723FA2046F8BD5020E5
:1024E00080F31188BFF34F8FBFF36F8FFEE700209B
:1024F000E3E738B5049D18B153B1CAB181B120E00A
:10250000502080F31188BFF34F8FBFF36F8FFEE72A
:10251000502080F31188BFF34F8FBFF36F8FFEE71A
:10252000502080F31188BFF34F8FBFF36F8FFEE70A
:1025300039B1502080F31188BFF34F8FBFF36F8FF5
:10254000FEE754241C46012384F846302B460094B1
:10255000FFF7E6F9204638BD70B50D46040025D0DA
:10256000FFF748FDD4E90F20216802FB00116160EC
:102570000021A1632168A1600A46D4E90F01401E31
:1025800000FB0121E16021464FF0FF3001F8440FCC
:10259000487004F110008DB1FFF7FAFC04F124003B
:1025A000FFF7F6FCFFF746FD012070BD502080F3D9
:1025B0001188BFF34F8FBFF36F8FFEE721690029AA
:1025C000F0D000F007FC0028ECD004494FF0805018
:1025D0000860BFF34F8FBFF36F8FE3E704ED00E0B8
:1025E0002DE9FF4782B01D468A464FF000080400DF
:1025F00003D0BAF1000F08D011E0502080F3118809
:10260000BFF34F8FBFF36F8FFEE7206C38B15020C0
:1026100080F31188BFF34F8FBFF36F8FFEE7022D5A
:102620000AD1E06B012807D0502080F31188BFF356
:102630004F8FBFF36F8FFEE700F0D8FA424F4FF095
:1026400000094FF0805648B9049838B1502080F303
:102650001188BFF34F8FBFF36F8FFEE7FFF7CAFC00
:10266000A06BE16B884207D3022D05D0049808B314
:10267000B8F1000F21D025E02A4651462046FFF749
:10268000A8F8A16C21B129462046FFF7FBF905E027
:10269000616A19B104F1240000F09CFB20B13E6096
:1026A000BFF34F8FBFF36F8FFFF7C4FC012006B05D
:1026B000BDE8F087FFF7BEFC22E06846FFF76EFD3D
:1026C0004FF00108FFF7B6FCFFF738FEFFF792FC6A
:1026D00094F94400401C01D184F8449094F94500D9
:1026E000401C01D184F84590FFF7A4FC04A968467A
:1026F00000F0EAF930B12046FFF73AFB00F0A2FB08
:102700000020D4E7FFF776FCA06BE16B884213D181
:10271000FFF790FC04F110000499FFF74DFD2046EF
:10272000FFF726FB00F08EFB002897D13E60BFF339
:102730004F8FBFF36F8F91E7FFF77CFC2046FFF7C9
:1027400017FB00F07FFB89E704ED00E02DE9F0477F
:10275000984617468946040003D0B9F1000F08D007
:1027600011E0502080F31188BFF34F8FBFF36F8FBC
:10277000FEE7206C38B1502080F31188BFF34F8FF3
:10278000BFF36F8FFEE7B8F1020F0AD1E06B0128AB
:1027900007D0502080F31188BFF34F8FBFF36F8FA6
:1027A000FEE7FFF79BFC5020EFF3118680F31188C2
:1027B000BFF34F8FBFF36F8FA06BE16B884207D3DE
:1027C000B8F1020F04D0002086F31188BDE8F0872D
:1027D00094F94550424649462046FEF7FAFF681CE8
:1027E00004D06D1C84F845500120EDE7A06C012554
:1027F00020B141462046FFF745F906E0606A00280F
:10280000F2D004F1240000F0E5FA0028ECD0002F0B
:10281000EAD03D60E8E700002DE9F747002683B0E5
:102820008A46040003D0BAF1000F08D011E050200E
:1028300080F31188BFF34F8FBFF36F8FFEE7206CDB
:1028400038B1502080F31188BFF34F8FBFF36F8FE3
:10285000FEE700F0CBF9DFF8F4804FF000094FF00D
:10286000805748B9059838B1502080F31188BFF3DC
:102870004F8FBFF36F8FFEE7FFF7BCFBA56BC5B1B2
:1028800051462046FEF792FF6D1EA563206950B1A8
:1028900004F1100000F09EFA28B1C8F80070BFF3F0
:1028A0004F8FBFF36F8FFFF7C5FB012006B0BDE868
:1028B000F087059808B11EB106E0FFF7BBFB27E0E3
:1028C0006846FFF76BFC0126FFF7B4FBFFF736FD08
:1028D000FFF790FB94F94400401C01D184F8449028
:1028E00094F94500401C01D184F84590FFF7A2FB04
:1028F00005A9684600F0E8F8002820460AD0FFF74E
:1029000037FA00F09FFA2046FFF7AEF80028B3D060
:102910000020CBE7FFF7A8F890B104F12400059957
:10292000FFF74AFC2046FFF723FA00F08BFA002855
:10293000A2D1C8F80070BFF34F8FBFF36F8F9BE732
:102940002046FFF715FA00F07DFA95E704ED00E068
:102950002DE9F343002683B00400354609D0206CEE
:1029600078B1502080F31188BFF34F8FBFF36F8F82
:10297000FEE7502080F31188BFF34F8FBFF36F8FB6
:10298000FEE700F033F9DFF83C814FF000094FF02B
:10299000805748B9049838B1502080F31188BFF3AC
:1029A0004F8FBFF36F8FFEE7FFF724FBA06BC8B11B
:1029B000401EA063206810B9FFF782FA60602069AA
:1029C00050B104F1100000F005FA28B1C8F8007009
:1029D000BFF34F8FBFF36F8FFFF72CFB012005B0C4
:1029E000BDE8F083049808B166B10FE03DB1502016
:1029F00080F31188BFF34F8FBFF36F8FFEE7FFF7B0
:102A000019FB5DE06846FFF7C9FB0126FFF712FBE3
:102A1000FFF794FCFFF7EEFA94F94400401C01D153
:102A200084F8449094F94500401C01D184F8459005
:102A3000FFF700FB04A9684600F046F8002820468E
:102A400012D0FFF795F900F0FDF92046FFF70CF8DA
:102A50000028A9D09DB3FFF7CDFA606A50B3206B70
:102A60000068C0F1380126E0FEF7FEFFE0B1206803
:102A700038B9FFF7BFFA606800F070F90546FFF754
:102A8000D9FA04F124000499FFF796FB2046FFF7DA
:102A90006FF900F0D7F9002886D1C8F80070BFF3AD
:102AA0004F8FBFF36F8F7FE72046FFF761F900F08C
:102AB000C9F979E700216068FFF7B2FB9FE7FFE7FC
:102AC00000208CE704ED00E02DE9F0410C46050004
:102AD00011D0C4B1FFF78EFA174B5A696E6820689F
:102AE000911B471C17D02F689B6A9F4219D09642B2
:102AF00017D8012410E0502080F31188BFF34F8FC6
:102B0000BFF36F8FFEE7502080F31188BFF34F8F24
:102B1000BFF36F8FFEE70024FFF78CFA2046BDE875
:102B2000F081884205D9401A20602846FFF736FB1D
:102B3000F1E700202060DCE7140000202DE9FF5FB2
:102B40008346DDE90E87994616468A469000FFF7D0
:102B50004BF905001CD06020FFF746F9040014D0A3
:102B60000020256384F85D00CDE90240CDE90087AF
:102B70004B46324651465846FEF7E5FE2046FEF7E4
:102B800081FD012004B0BDE8F09F2846FFF766FAFA
:102B90004FF0FF30F6E7F0B585B0DDE90B640A9D34
:102BA000A6B1DCB1602700972663022684F85D6039
:102BB000002604AFCDE90246CDE90057FEF7C3FE7B
:102BC0002046FEF75FFD049805B0F0BD502080F36D
:102BD0001188BFF34F8FBFF36F8FFEE7502080F354
:102BE0001188BFF34F8FBFF36F8FFEE70548C169B0
:102BF00019B1806B18B10020704701207047022086
:102C00007047000014000020014840697047000030
:102C1000140000202DE9F0412E4C0027A06B40B19C
:102C2000206A401C2062606A00B101273846BDE876
:102C3000F0816669761C666113D16068006838B1FE
:102C4000502080F31188BFF34F8FBFF36F8FFEE7E3
:102C50006068A1686160A060A06A401CA062FFF784
:102C600007F8206BDFF87080864209D3606800683F
:102C700080B16068C068C568686886420DD220630C
:102C80002068C06A00EB800158F821000128CAD9E9
:102C90000127C8E74FF0FF30F1E7281DFFF74EF995
:102CA000A86A18B105F11800FFF748F9E86AA169A8
:102CB000884200D9A06100EB800108EB8100291D4A
:102CC000FFF78CF9E86A2168C96A8842CED30127E8
:102CD000CCE70000140000207801002070B504004B
:102CE0004FF0000133D01B4D2868844207D050209C
:102CF00080F31188BFF34F8FBFF36F8FFEE7206D16
:102D000038B1401E2065E36CE26A9A421FD040B1A0
:102D10001DE0502080F31188BFF34F8FBFF36F8FFA
:102D2000FEE7201DFFF70AF9E06CE062C0F1380011
:102D3000A061E06AA969884200D9A861064900EB50
:102D4000800001EB8000211DFFF748F901210846B2
:102D500070BD0000140000207801002070B5040050
:102D60004FF000002BD0194DE16A2A68D26A9142D7
:102D700026D2A069002804DB2868C06AC0F13800A8
:102D8000A061134E01EB8101606906EB810188426D
:102D900011D1201DFFF7D2F82868C06AE062A96946
:102DA000884200D9A86100EB800006EB8000211D5D
:102DB000FFF714F902E02868C06AE062012070BDE4
:102DC000E16C2A68D26A9142F8D370BD14000020E9
:102DD0007801002070B5C068C46854B104F11800CF
:102DE0000646FFF7ABF8144DA86B50B131461348B7
:102DF00015E0502080F31188BFF34F8FBFF36F8F22
:102E0000FEE7201DFFF79AF8E06AA969884200D919
:102E1000A8610B4900EB800001EB8000211DFFF74A
:102E2000DDF8E06A2968C96A884202D9012068622F
:102E300070BD002070BD00001400002000060020BE
:102E4000780100202DE9F0472C4D00242746A86B7F
:102E500038B1FFF7CFF8A86B401EA863A86B40B14C
:102E600046E0502080F31188BFF34F8FBFF36F8F80
:102E7000FEE72969224E0120D1B3A6F5916980466B
:102E80003068E0B1F068C46804F11800FFF756F844
:102E9000201DFFF753F8E06AA969884200D9A861AC
:102EA00000EB800109EB8100211DFFF797F8E06A34
:102EB0002968C96A8842E3D3C5F82480E0E70CB1E9
:102EC000FEF7D6FE2C6A4CB14FEA0806FFF7A2FEC9
:102ED00000B16E62641EF9D100202862686A38B1C0
:102EE0000849012738070860BFF34F8FBFF36F8F82
:102EF000FFF7A0F83846BDE8F08700001400002076
:102F00000006002004ED00E010B586B0FEF722FCBC
:102F1000114CA068B8B100200390049005AA04A940
:102F200003A8FFF729F8DDE9032102208DE8070057
:102F300000230AA10B48059AFFF72DFEE06010B1AF
:102F400006B0012010BD502080F31188BFF34F8FD1
:102F5000BFF36F8FFEE7000058000020546D722011
:102F6000537663004D1D00082DE9FF411E461346B0
:102F700002000A9D4FF0000016D0144CA768002FE5
:102F80000FD0CDE900130292062917DAFFF72EFEC3
:102F900002284FF000030FD000226946A068FFF717
:102FA0001FFB04B0BDE8F081502080F31188BFF30F
:102FB0004F8FBFF36F8FFEE72A46EEE700233246BE
:102FC00069463846FFF7C2FBEBE7000058000020D7
:102FD0002030000800000000000000000000000099
:102FE00000000000000200001800000000000000C7
:102FF00000000000010202030405060708090A0B8D
:103000000C0D0E0F10100000000000000000010267
:103010000304060708090000000001020304000081
:1030200064656661756C745461736B004C300008A4
:1030300000000020A800000010120008F430000872
:10304000A8000020702100002012000800000000ED
:103050000100000010000000000000000024F40047
:103060000000000000000000000000000000000060
:103070000000000000000000000000000000000050
:103080000000000000000000000000000000000040
:103090000000000000000000000000000000000030
:1030A0000000000000000000000000000000000020
:1030B0000000000000000000000000000000000010
:1030C0000000000000000000000000000000000000
:1030D0000000000000000000AAAAAAAA0000000048
:1030E00000000000000000000000000000000000E0
:0430F00000000000DC
:04000005080000ED02
:00000001FF
