:020000040800F2
:10000000182200209D0100084F0F0008B30E0008C1
:100010004D0F000859020008891100080000000077
:1000200000000000000000000000000005010008C2
:100030005B0200080000000049010008550F00089D
:10004000B7010008B7010008B7010008B7010008B0
:10005000B7010008B7010008B7010008B7010008A0
:10006000B7010008B7010008B7010008B701000890
:10007000B7010008B7010008B7010008B701000880
:10008000B7010008B7010008B7010008B701000870
:10009000B7010008B7010008B7010008B701000860
:1000A000B7010008B7010008B7010008B701000850
:1000B000E10F0008B7010008B7010008B701000808
:1000C000B7010008B7010008B7010008B701000830
:1000D000B7010008B7010008B7010008B701000820
:1000E000B7010008B7010008B7010008DFF810D019
:1000F00000F0A0F800480047FD140008AFF30080AE
:1001000018220020224B19680868B0E8F00F80F32D
:100110000988BFF36F8F4FF0000080F311884EF015
:100120000D0E70470000000006480068006880F36C
:10013000088862B661B6BFF34F8FBFF36F8F00DFE1
:1001400000BF00BF08ED00E0EFF30980BFF36F8F41
:100150000F4B1A6820E9F00F106008B54FF05000FF
:1001600080F31188BFF34F8FBFF36F8F02F06AFAED
:100170004FF0000080F31188BDE808401968086856
:10018000B0E8F00F80F30988BFF36F8F704700BFAE
:1001900014000020EFF305807047000006488047F8
:1001A00006480047FEE7FEE7FEE7FEE7FEE7FEE75C
:1001B000FEE7FEE7FEE7FEE7DD0F0008ED000008C2
:1001C00040EA01039B0703D009E008C9121F08C0D9
:1001D000042AFAD203E011F8013B00F8013B521E59
:1001E000F9D27047D2B201E000F8012B491EFBD2D0
:1001F00070470022F6E710B513460A460446194632
:10020000FFF7F0FF204610BD30B50B460146002039
:100210002022012409E021FA02F59D4205D303FAC8
:1002200002F5491B04FA02F52844151EA2F1010249
:10023000F1DC30BD064C074D06E0E06840F00103FC
:1002400094E8070098471034AC42F6D3FFF752FF0A
:10025000EC3200080C330008FEE7704772B6FEE788
:1002600070B5044600F0FEF80546601C02D0044854
:100270000078044400F0F6F8401BA042FAD370BDA9
:10028000040000202DE9F84FDFF8B8910024A9F10F
:10029000040B23460F2709F1040AABF1040EC9E051
:1002A0000125A5402A40AA427DD1674ED1F804C05D
:1002B000ACEB0608B44532D014DCBCF1030F3AD0E5
:1002C00009DCBCF1000F2AD0BCF1010F1CD0BCF13D
:1002D000020F31D11DE0BCF1110F17D0BCF1120F8C
:1002E0002AD119E0B8F5881F19D006DCB8F5803F8F
:1002F00015D0B8F5801F1FD111E0B8F5001F0ED042
:10030000B8F5041F18D10AE0CB6815E0CB681B1DB7
:1003100012E0CB6808330FE0CB680C330CE08B683D
:100320002BB1012B4FF0080303D0456104E00423F7
:1003300002E0056100E00023FF2A01D8064601E043
:1003400000F104064FEA840501D9A5F12005D6F88D
:10035000008007FA05FC28EA0C0803FA05F548EACC
:100360000508C6F800804D68ED0062D5374DAE69CE
:1003700046F00106AE61AD6924F0030605F0010503
:100380000095334D06EB050CDCF80850A607360F38
:1003900007FA06F825EA0805DFF8B880404503D1DA
:1003A0004FF0000817E044E0DFF8AC80404502D190
:1003B0004FF001080FE0DFF8A480404502D14FF074
:1003C000020808E0DFF89880404502D14FF00308AA
:1003D00001E04FF0040808FA06F848EA0508CCF8EE
:1003E00008804D68D9F80060ED024D4601D51643EE
:1003F00000E096432E604D68DAF80060AD02554685
:1004000001D5164300E096432E604D68DBF800608E
:10041000AD035D4601D5164300E096432E604D685E
:10042000DEF80060ED03754601D5164300E0964303
:100430002E60641C0D682A46E5407FF431AFBDE8AC
:10044000F88F000008040140000011100010024065
:100450000000014000080140000C01400010014074
:10046000001401400148806870470000040000202B
:1004700002488168027811448160704704000020BE
:10048000074810B5016841F010010160032000F039
:100490009DF80F2000F006F800F050F8002010BD85
:1004A0000020024030B50546204887B0C16941F0C0
:1004B0000101C161C06906A900F00100009001A816
:1004C00000F02CF90498B8B100F048F94000184940
:1004D0004FF08042B0FBF1F11648491E02604160C6
:1004E00040F2E7320021C0E903218160816100F020
:1004F00011FB040003D015E000F030F9E7E70D48E8
:1005000000F036FB04000DD11C2000F031F8102D56
:1005100007D2002229461C2000F038F80648056062
:1005200000E0012407B0204630BD0000001002406A
:1005300040420F00F0000020080000200B4882B06D
:10054000816941F001018161816901F0010100913E
:10055000C16941F08051C161C069002200F0805042
:1005600000900F21901E02B000F010B80010024061
:10057000002809DB00F01F020121914040098000A2
:1005800000F1E020C0F8001170470000F0B40E4BFD
:100590001B680C46C3F30223C3F10705042D00D9E1
:1005A0000425191D072901D2002300E0DB1E0126C6
:1005B00006FA05F1491E214099409E40761E1640DC
:1005C0003143F0BC00F0F2BD0CED00E0064900F054
:1005D000070208684FF6FF03184040EA0220034A6A
:1005E00010430860704700000CED00E00000FA05C1
:1005F0002DE9F0470F46050061D0434E306800F00A
:100600000700B84209D2306820F007003843306054
:10061000306800F00700B84251D128683B4C810790
:1006200012D5400703D5606840F4E0606060287828
:10063000000703D5606840F4605060606068A96896
:1006400020F0F000084360602878C00728D0686870
:10065000012810D02168022810D0890700292EDA3D
:10066000616821F0030101436160FFF7FBFE8046F2
:1006700041F288390DE021688903EFE78901EDE750
:10068000FFF7F0FEA0EB0801494502D90320BDE8C1
:10069000F0876068696800F00C00B0EB810FEFD163
:1006A000306800F00700B8420BD9306820F007002E
:1006B00038433060306800F00700B84201D00120B4
:1006C000E5E72878400705D56068E96820F4E06030
:1006D000084360602878000706D56068296920F41F
:1006E000605040EAC100606000F058F86168084A54
:1006F000C1F30311515CC840064908600648006810
:10070000FFF7D0FE0020C2E70020024000100240A8
:10071000C632000810000020080000200F220260EE
:100720000C4A536803F003034360536803F0F0037B
:100730008360536803F4E063C36052684FF4E0637E
:1007400003EAD20202610448006800F00700086072
:100750007047000000100240002002400448054994
:1007600000684968044AC1F30221515CC8407047DF
:100770001000002000100240D6320008044805494D
:1007800000684968044AC1F3C221515CC8407047FF
:100790001000002000100240D63200080F4A5168B5
:1007A00001F00C00042803D0082803D00C4870473F
:1007B0000C4870470C48C1F38343C903C05C0AD599
:1007C0005168094AC1F34041921E515C054A5043A9
:1007D000B0FBF1F0704705494843704700100240F4
:1007E00000127A00001BB700B632000800093D0075
:1007F0002DE9F84F040070D02078C04DC00749D0D3
:100800006868C0F38100012807D06868C0F38100E0
:10081000022809D16868C00306D52868800339D545
:1008200060680028E7D035E06068B0F5803F0BD005
:1008300010B1B0F5A02F11D0286820F480302860C6
:10084000286820F4802002E0286840F48030286086
:10085000606890B1FFF706FE06460AE0286840F49B
:1008600080202860F0E700BFFFF7FCFD801B6428B4
:1008700073D828688003F7D50CE0FFF7F3FD064630
:1008800005E000BFFFF7EEFD801B6428F0D8286864
:100890008003F7D420789A4E80074FF001094FF07B
:1008A000000839D5686810F00C0F07D06868C0F3ED
:1008B0008100022809D16868C00306D4286880072F
:1008C00014D52069012808D110E02069B0B1C6F81C
:1008D0000090FFF7C7FD074605E00AE1FFF7C2FDFC
:1008E000C01B0228C4D828688007F7D5286861692A
:1008F00020F0F80040EAC10028600DE0C6F8008052
:10090000FFF7B0FD074604E0FFF7ACFDC01B02286F
:1009100023D828688007F7D4207800072CD5794899
:10092000A169D9B1C0F80090FFF79CFD074604E02B
:10093000FFF798FDC01B02280FD8686A8007F7D51B
:1009400071484FF4FA510068B0FBF1F0009000BF1D
:100950000098411E0091FAD20EE080E0C0F80080BD
:10096000FFF780FD074604E0FFF77CFDC01B02286F
:1009700075D8686A8007F7D42078400760D5E869A1
:100980000027C00008D4E86940F08050E861E869B9
:10099000012700F0805000905C480168C90513D41D
:1009A0000168834641F480710160FFF75BFD824678
:1009B00006E000BFFFF756FDA0EB0A0064284ED802
:1009C000DBF80000C005F5D5E06801280AD008B1C1
:1009D000052813D0286A20F001002862286A20F038
:1009E000040002E0286A40F001002862E06841F259
:1009F000883B98B1FFF736FD82460BE0286A40F04D
:100A000004002862EEE700BFFFF72CFDA0EB0A010F
:100A100059455AD8286A8007F6D50CE0FFF722FD21
:100A2000824605E0FFF71EFDA0EB0A0159454CD8B0
:100A3000286A8007F6D41FB1E86920F08050E86189
:100A4000E06988B36968C1F38101022944D00228B2
:100A5000C6F8608004D0FFF705FD044638E034E0B6
:100A6000FFF700FD074604E0FFF7FCFCC01B02286F
:100A70002BD828688001F7D4206AB0F5803F05D1D3
:100A80006868A16820F4003008436860D4E9080170
:100A90000843696821F4741108436860C6F86090DF
:100AA000FFF7E0FC044606E025E000BFFFF7DAFCB4
:100AB000001B022809D828688001F7D51BE000BF79
:100AC000FFF7D0FC001B022802D90320BDE8F88FF5
:100AD00028688001F4D40EE00128F7D06868226A03
:100AE00000F48031914204D1616A00F470108842B0
:100AF00001D00120EAE70020E8E7000000100240F2
:100B00000000424280044242100000200070004079
:100B10007047704710B5040003D094F83D0010B141
:100B200007E0012010BD002084F83C00204600F0C2
:100B30001EF8022084F83D00211D206800F056FABE
:100B4000012084F8460084F83E0084F83F0084F8D1
:100B5000400084F8410084F8420084F8430084F89F
:100B6000440084F8450084F83D00002010BD704723
:100B700090F83D10012901D001207047022180F832
:100B80003D100168CA6842F00102CA6000680B4962
:100B9000884208D0B0F1804F05D00949884202D080
:100BA0000849884204D1816801F00701062903D071
:100BB000016841F00101016000207047002C0140F4
:100BC0000004004000080040704770B5044600680B
:100BD00001694FF00005C943890715D4C168C943AD
:100BE000890711D4E91E01610120207720688069FE
:100BF0008007204602D0FFF7E7FF04E000F098F8F6
:100C0000204600F096F8257720680169C943490716
:100C100017D4C168C943490713D46FF004010161B7
:100C2000022020772068806910F4407F204602D09F
:100C3000FFF7CAFF04E000F07BF8204600F079F8E7
:100C4000257720680169C943090716D4C168C943DB
:100C5000090712D46FF00801016104202077206891
:100C6000C0698007204602D0FFF7AEFF04E000F025
:100C70005FF8204600F05DF8257720680169C943D8
:100C8000C90617D4C168C943C90613D46FF010014F
:100C90000161082020772068C06910F4407F204659
:100CA00002D0FFF791FF04E000F042F8204600F088
:100CB00040F8257720680169C943C90708D1C16890
:100CC000C943C90704D1891E0161204600F032F8EA
:100CD00020680169C943090609D4C168C9430906E6
:100CE00005D46FF0800101612046FFF711FF2068F5
:100CF0000169C943490609D4C168C943490605D4F5
:100D00006FF040010161204600F01BF82068016986
:100D1000C94389060BD4C168C943890607D46FF05B
:100D2000200101612046BDE87040FFF7F2BE70BDB2
:100D3000704770470068B0F1804F01D1FFF798BB52
:100D40007047704770B5040004D094F84100002546
:100D500010B106E0012070BD84F84050204600F03C
:100D600023F8242084F841002068C16821F4005150
:100D7000C160204600F070F92068016921F49041BB
:100D800001612068416921F02A0141612068C16840
:100D900041F40051C1606564202084F8410084F86A
:100DA00042006563002070BD30B585B0002400941A
:100DB00001940294039400681449884224D1144891
:100DC000816941F480418161816901F4804104912C
:100DD000816941F00401816180690E4D00F00400D9
:100DE00004904FF4007000900220019003200390C3
:100DF00069462846FFF746FA2815CDE900046946FA
:100E000028460294FFF73EFA05B030BD0038014095
:100E100000100240000801402DE9F843044690F814
:100E200041001F4616460D46202802D00220BDE88C
:100E3000F8837DB176B100206064212084F8410000
:100E4000FFF710FBA6848046E684A068B0F5805FBB
:100E500002D003E00120EAE7206910B12E46002508
:100E60000EE000260CE08021204600F051F9A0B9E8
:100E7000AEB116F8010B21684860E08C401EE0849A
:100E8000E08C43464FF0000200970028EBD14FF072
:100E90004001204600F03CF930B10320C7E735F8A7
:100EA000020BC0F30800E6E7202084F84100002090
:100EB000BDE7FEE710B5054A0021054800F084FBB8
:100EC00004490860BDE8104000F07CBA9032000888
:100ED000510F0008000000200D4808B5816941F05D
:100EE00010018161816901F010010091816941F077
:100EF00020018161816901F020010091816941F047
:100F000004018161806900F00400009008BD0000C8
:100F1000001002400C4810B50A4901604FF4E1315D
:100F20004160002181600C22C160C0E9041281612E
:100F3000C161FFF707FF002803D0BDE81040FFF7AD
:100F40008DB910BD00380140A8000020FEE7FEE783
:100F5000FEE7000010B5502080F31188BFF34F8FDB
:100F6000BFF36F8F01F0B6FF18B104494FF0805006
:100F70000860002080F3118810BD000004ED00E03F
:100F800030B58FB028216846FFF733F914210AA83D
:100F9000FFF72FF901210804CDE900100024029485
:100FA00002250491CDE90750000109906846FFF73A
:100FB0001FFC08B172B6FEE70F20CDE90A054FF419
:100FC0008060CDE90C4002210AA80E94FFF710FBC7
:100FD000002801D072B6FEE70FB030BD70470000A8
:100FE0000148FFF7F2BD0000F0000020F0B50268F4
:100FF000164B174C174D4FF08047984205D0B8421A
:1010000003D0A04201D0A84203D122F070064A6862
:101010003243984205D0B84203D0A04201D0A84242
:1010200003D122F44074CA6822434C6922F0800242
:10103000224302608A68C2620A688262984201D1D1
:101040000969016301214161F0BD0000002C0140EC
:10105000000400400008004070B5044600680169C3
:10106000E26821F44051114301612169A0680843FD
:10107000616908432168CA6841F20C639A430243DC
:10108000CA6020684169A26921F44071114341613D
:101090001E492068884202D1FFF770FB01E0FFF78C
:1010A0005DFB00EBC00101EB001260686421800071
:1010B000B2FBF0F3B3FBF1F36FF018067343B2FB2E
:1010C000F0F5B2FBF0F605EB8305322303EB0515D3
:1010D000B5FBF1F5B6FBF1F605F0F00505EB0615ED
:1010E000B2FBF0F6B2FBF0F0B0FBF1F06FF01802DB
:1010F000504306EB800003EB0010B0FBF1F02168D9
:1011000000F00F002844886070BD000000380140E6
:101110002DE9F041984617460E460446069D27E005
:10112000681C25D02DB1FFF79DF9A0EB0800A8425F
:101130001ED920680C3050E8001F21F4D07140E81F
:101140000012002AF5D12068143050E8001F21F069
:10115000010140E80012002AF5D1202084F8410066
:1011600084F84200002084F840000320BDE8F081AC
:101170002068006836EA000004D00020B842CFD0D2
:101180000020F3E70120F9E7FEE700000FB4054B6C
:1011900010B503A9044A029800F028F810BC5DF8C5
:1011A00014FB0000A9130008A40000200907090E81
:1011B000002804DB00F1E02080F80014704700F004
:1011C0000F0000F1E02080F8141D704702E008C80D
:1011D000121F08C1002AFAD170477047002001E0B1
:1011E00001C1121F002AFBD1704700002DE9FF4FFB
:1011F0008BB09A460F460546002606E025280BD000
:1012000052460D9990476D1C761C28780028F5D120
:101210000FB03046BDE8F08F0024A046012260499F
:1012200000E0044315F8013F203B02FA03F00842B6
:10123000F7D128782E2817D115F8010F44F00404AF
:101240002A280ED06FF02F022878A0F1300109294A
:101250000AD808EB880102EB410100EB01086D1C84
:10126000F2E757F8048B6D1C287869283ED006DC1D
:101270000028CDD063280BD0642804D136E0732831
:1012800010D075284BD052460D999047761C85E0BA
:1012900017F8040B8DF8000000208DF80100E946D6
:1012A000012003E057F8049B4FF0FF3061074FF037
:1012B000000401D40AE0641C44450DDA8442FADBE0
:1012C00019F804100029F6D106E0641C8442FCDB06
:1012D00019F804100029F8D1264404E019F8010B8C
:1012E00052460D999047641EF8D257E001CF4FF057
:1012F0000A0B002802DA40422D2102E0210504D524
:101300002B218DF82410012103E0E10705D02021D5
:10131000F7E70DF1200908910CE00021F9E701CF72
:101320004FF00A0BF9E75946FEF76EFF01F1300264
:1013300009F8012D0028F6D1ADEB090000F1200BD2
:10134000600701D44FF00108D84502DDA8EB0B007F
:1013500000E000208046002406E009A85246005D17
:101360000D999047641C761C08988442F5DB04E0D4
:10137000302052460D999047761CB8F10001A8F133
:101380000108F5DC05E019F8010B52460D9990476C
:10139000761CBBF10001ABF1010BF4DC6D1C34E7F2
:1013A000092801007047000013B54FF0FF342346B1
:1013B000012269460248FFF72FFD20461CBD0000B0
:1013C000A80000201CB503220021012001F0CCF967
:1013D0001F49086040B100231A46194601F060FA1F
:1013E000012803D01BA02DE020A02BE018491A20D3
:1013F000091DCDE900010023802224A1254801F028
:10140000FDFC012801D024A01CE01149182008315E
:10141000CDE900010023802225A1274801F0EEFC40
:10142000012801D025A00DE0094919200C31CDE992
:1014300000010023802227A1284801F0DFFC0128B9
:1014400004D027A0BDE81C40FFF7A0BE1CBD0000D3
:10145000940000207853656D6170686F726547690C
:101460007665206572726F720D0A00007853656DA3
:101470006170686F726543726561746542696E611F
:101480007279206572726F720D0A00007461736B5D
:1014900041000000411F00084372656174652074BB
:1014A00061736B41206572726F720D0A000000005B
:1014B0007461736B4200000019200008437265617B
:1014C0007465207461736B42206572726F720D0ACD
:1014D000000000007461736B43000000FD200008F1
:1014E000437265617465207461736B432065727229
:1014F0006F720D0A0000000000207047FEF7C0FF69
:10150000FFF73EFDFFF7E8FCFFF704FD00F020F8D1
:10151000FFF7D0FC00F038F8FEE7000010B5EFF35D
:10152000058149B9EFF3108131B9084909680229E9
:1015300005D1EFF3118111B16FF0050403E0002430
:1015400008B100F039FF204610BD00006C000020FB
:10155000EFF3058058B9EFF3108040B909490868E6
:10156000022801D030B109E0EFF3118030B16FF003
:101570000500704701200860002070474FF0FF30E1
:10158000704700006C00002010B5EFF3058060B9D3
:10159000EFF3108048B90B490868022802D00128EF
:1015A00006D00BE0EFF3118040B16FF0050010BDE5
:1015B0000220086000F0F8FF002010BD4FF0FF305F
:1015C00010BD00006C000020F0B585B04FEA0103AB
:1015D0004FF00004EFF305810394A1BBEFF31081FA
:1015E00089BB21490968022902D1EFF3118151BB5E
:1015F00048B3802618218DF8104004AD42B3176817
:1016000007B13D4697691FB139467F1E382F02D278
:101610001779FF0702D0002005B0F0BD576907B168
:10162000BE08D2F808C0BCF1000F0DD0D468602C01
:1016300018D312693AB137B18DE8061032462946FF
:1016400001F009FC03900DE0D7685FB912694AB94F
:1016500003AACDE90012B2B2294601F0CFFB01285E
:1016600000D003940398D7E76C0000202DE9F041E7
:10167000134C0F46054666692068001D00F06CFD9E
:10168000681C07D137B12168BDE8F0410D48091D3C
:1016900000F0B2BD20683544B5424560216805D2EE
:1016A000A068BDE8F041091D00F08EBD6068091D0D
:1016B00000F08AFD206B854200D22563BDE8F081F1
:1016C00014000020280600202DE9F041054600F016
:1016D0009FFD2D4C2069401C206120682B4F10B1CC
:1016E000E06930B32BE025602069012827D100266E
:1016F00006EB860007EB800000F058FD761C382EC4
:10170000F6D3234800F052FD2148143000F04EFD7E
:101710001F48283000F04AFD1D483C3000F046FDCF
:101720001B48503000F042FD194860601430A06042
:1017300005E02068E96AC06A884200D82560E06A4E
:10174000401CE0626864E86AA169884200D9A0612F
:1017500000EB800007EB8000291D00F04DFD00F03C
:1017600077FDE06900280CD02068E96AC06A8842E9
:1017700007D208494FF080500860BFF34F8FBFF386
:101780006F8FBDE8F0810000140000207801002078
:10179000D805002004ED00E038B500F039FD104C0C
:1017A000A068C8B90F4800F001FD0E48143000F0E1
:1017B000FDFC0C482060143060600A4B0020283388
:1017C000009003F1540210210A2000F0F1FFA06004
:1017D00010B105A100F0BAFDBDE8384000F038BDF9
:1017E000580000203C060020546D7251000000009B
:1017F00030B4026C0B46002A0BD0C1681144C160A2
:101800004468A14201D30168C16030BC1846FEF7AC
:10181000D7BC30BC70472DE9F041856B17460446B4
:101820000026026C82B1C7B1E068FEF7C9FCE1682E
:10183000206C091AE1602268914202D26168081A9C
:10184000E060022F16D017E02068A8B9606801F0A8
:10185000A5FB0646002060600EE0A068FEF7B0FC25
:10186000216CA0680844A0606168884204D32068A5
:10187000A06001E005B16D1E6D1CA5633046BDE89A
:10188000F08110B5044690F85D0058B101280CD0E5
:1018900002280FD0502080F31188BFF34F8FBFF381
:1018A0006F8FFEE7206B00F0E7FC2046BDE810409C
:1018B00000F0E2BC10BD000010484FF48051420718
:1018C00006D0C01D0D4920F00700411AC1F5805116
:1018D0000B4A00230144C2E900030839103A21F001
:1018E000070111604B600B600B1AC0E90013936095
:1018F0004FF000405360D06070470000180E002089
:1019000080000020144E154CA6F29C474FF08058E2
:10191000DFF84C9012E000BF00F07AFCF068C56878
:10192000281D00F019FC2069401E2061E068401E5F
:10193000E06000F08DFC2846FFF7A3FFE068002878
:10194000EAD138680128F9D9C9F80080BFF34F8F70
:10195000BFF36F8FF2E70000140600201400002090
:1019600004ED00E070B51D46049C61B1C4F8002090
:10197000C4E90F010121204600F04EFF84F85050C9
:101980000020A06470BD2460F2E72DE9F0470E4608
:10199000DDE909841746824691009946089DA522F3
:1019A000206BFEF71FFC6FF00301206B01EB87013A
:1019B000084420F00707780707D0502080F31188EB
:1019C000BFF34F8FBFF36F8FFEE72218315C82F8B1
:1019D0003410315C11B1401C1028F6D3002684F875
:1019E0004360382D00D33725E562C4E91356201D26
:1019F00000F0E7FB04F1180000F0E3FB2461C5F1FF
:101A000038006462A0616665A66584F85C604A4639
:101A10005146384600F082FA2060B8F1000F01D03C
:101A2000C8F80040BDE8F08730B5114900E0114624
:101A30000A688242FBD34B685C18844203D1406839
:101A400018444860084643681C18944209D1084C61
:101A5000103C2468A24209D052681A4442600A68C5
:101A600012680260814200D0086030BD0460F9E76E
:101A70008000002070B5002441600B4D0061914250
:101A800006D8D11A8269914206D2011D686807E022
:101A90009A4203D2994201D3012403E0011D286830
:101AA00000F092FB204670BD5800002010B504469F
:101AB00000F0AEFBA06B28B15FF0000400F0C8FBA3
:101AC000204610BD0124F9E773B500260098846C08
:101AD0005CB1A26BE06B82420FD3502080F311887F
:101AE000BFF34F8FBFF36F8FFEE7502080F3118855
:101AF000BFF34F8FBFF36F8FFEE7A26B82420CD212
:101B000094F945500A4669462046FFF784FE06468A
:101B1000681C04D06D1C84F8455030467CBD606A5A
:101B20000028FAD004F1240001F0B4FA0028F4D01F
:101B30000126F2E730B589B0304D55E00498002811
:101B400006DADDE90601059A9047049800284BDB88
:101B5000069C606910B1201D00F0FEFA02A800F09A
:101B6000B9F8024604980A283ED2DFE800F00505DD
:101B7000053D263705053D260598A1690346014424
:101B80002046FFF777FF00B3616A20468847E06987
:101B9000012829D1002000900598A169002342184E
:101BA0001946204601F040FB78B9502080F3118897
:101BB000BFF34F8FBFF36F8FFEE70598A06128B189
:101BC000811813462046FFF755FF0DE0502080F3A3
:101BD0001188BFF34F8FBFF36F8FFEE794F82C008F
:101BE00010B9204600F048FB002204A9A86800F0C4
:101BF00073FF0028A2D109B030BD000058000020BA
:101C00002DE9FC410F46054600F014FD01A800F047
:101C100061F80446019818B101F074FABDE8FC813E
:101C2000224EAFB170680068A8B30027291B3A465E
:101C3000B06800F09FFB01F065FA0028EED11C4966
:101C40004FF080500860BFF34F8FBFF36F8FE5E711
:101C5000A542EBD801F056FA30682746C068C46840
:101C6000201D00F079FAE069012810D1A0692B4607
:101C700041193A462046FFF7FDFE40B100200346D9
:101C8000014600902A46204601F0CEFA20B1616A52
:101C900020468847C2E707E0502080F31188BFF351
:101CA0004F8FBFF36F8FFEE70127BFE7580000207B
:101CB00004ED00E006484168096829B14168C96837
:101CC000C9684968016370474FF0FF31FAE70000C7
:101CD0001400002070B5054601F0F6F8064E0446E3
:101CE0003069844203D200F009F8012000E00020AE
:101CF00028602046346170BD58000020F8B5194DA9
:101D00001FE0C068C4680668201D00F025FA616AFB
:101D100020468847E069012813D1A0693044B042C9
:101D200006D924616060211D286800F04DFA08E0A2
:101D300000200346014600903246204601F074FA26
:101D400038B1286801680029DBD16968C5E900104D
:101D5000F8BD502080F31188BFF34F8FBFF36F8F12
:101D6000FEE700005800002008484068401C4FF083
:101D7000500080F3118804D0BFF34F8FBFF36F8FF3
:101D8000FEE7BFF34F8FBFF36F8FFEE788000020A1
:101D9000074C2068016841B1C0680021D0F80000FC
:101DA000FFF72EFFFFF7C6FEF3E701210020F7E75C
:101DB000580000202DE9F041044600F029FA94F97A
:101DC000455004F1240610E0A06C20B1002120460B
:101DD000FFF77AFE04E0606A48B1304601F05AF934
:101DE00008B100F05FFB6D1E6DB2002DECDC4FF012
:101DF000FF3684F8456000F02BFA00F009FA94F9F8
:101E0000445004F1100709E0206948B1384601F058
:101E100041F908B100F046FB6D1E6DB2002DF3DCF8
:101E200084F84460BDE8F04100F012BA2DE9F041B9
:101E30000546002700F0FEFB314E306808B9FFF779
:101E40003BFDF06805424BD1C5B3083568070ED09D
:101E500005F00700C0F108000544680707D05020CE
:101E600080F31188BFF34F8FBFF36F8FFEE72DB361
:101E70007068854234D82248103001460C6801E071
:101E800020460C466168A94202D221680029F7D198
:101E900031688C4224D00768216801606068083787
:101EA000411B10290FD96019420708D0502080F338
:101EB0001188BFF34F8FBFF36F8FFEE710E04160D3
:101EC0006560FFF7B1FD61687068401A7060B268C4
:101ED000904200D2B060F06801430020C4E90001E4
:101EE00001F010F9780707D0502080F31188BFF374
:101EF0004F8FBFF36F8FFEE73846BDE8F0810000DB
:101F0000700000200449086818B10868026D521C6E
:101F100002650868704700001400002010B5031F18
:101F20004FF080741C601B1F21F001011960191F04
:101F3000024B0B60143940380A6010BD691D00085F
:101F400010B54FF4FA60FFF7E9FA12A0FFF71EF997
:101F5000164C4FF0FF31206800F05AFE012801D0E6
:101F600013A00EE01AA0FFF711F91FA0FFF70EF95A
:101F700000231A461946206800F092FC012804D07C
:101F80001DA0BDE81040FFF701B9BDE810400020DA
:101F900000F038BA7461736B4120737461727420FD
:101FA00072756E6E696E670D0A0000009400002065
:101FB0007461736B41207853656D6170686F7265F1
:101FC00054616B65206572726F720D0A000000002B
:101FD0007461736B412074616B652073656D617012
:101FE000686F72650D0A00007461736B4120707236
:101FF000696E740D0A0000007461736B41207853A0
:10200000656D6170686F726547697665206572728B
:102010006F720D0A0000000070B517A0FFF7B6F848
:102020001B4D4FF0FF31286800F0F2FD012801D070
:1020300018A017E01FA0FFF7A9F800244FF47A7644
:1020400022A0FFF7A3F83046FEF70AF9641C0A2C19
:10205000F6DB00231A461946286800F021FC012807
:1020600004D01EA0BDE87040FFF790B8BDE87040F6
:10207000002000F0C7B900007461736B42207374D4
:102080006172742072756E6E696E670D0A000000D1
:10209000940000207461736B42207853656D617009
:1020A000686F726554616B65206572726F720D0A9C
:1020B000000000007461736B422074616B652073D3
:1020C000656D6170686F72650D0A00007461736BF5
:1020D00042207072696E740D0A0000007461736BA7
:1020E00042207853656D6170686F726547697665E7
:1020F000206572726F720D0A0000000070B541F227
:102100008830FFF70BFA0AA0FFF740F800244FF4DD
:102110007A750DA0FFF73AF82846FEF7A1F8641C7F
:10212000032CF6DBBDE87040002000F06BB9000026
:102130007461736B432073746172742072756E6E78
:10214000696E670D0A0000007461736B4320707242
:10215000696E740D0A000000D0E9013201699A60CD
:10216000D0E901235A604A68824201D182684A60FC
:10217000002202610868401E08600868704700007D
:10218000034B036003F1600008608020106070471B
:1021900058070020044B036003F1600008604FF40F
:1021A0008070106070470000B809002000F108013D
:1021B0004FF0FF32C0E90112C160016100210160EE
:1021C000704700210161704730B50B685A1C02D07E
:1021D00000F1080202E0026904E022465468256822
:1021E0009D42FAD953684B6099608A6051600861DA
:1021F0000168491C016030BD42684A6093688B6089
:1022000093685960916008610168491C01607047DA
:10221000502080F31188BFF34F8FBFF36F8F0A49AF
:102220004868401C486001280CD10848006810F03C
:10223000FF0F07D0502080F31188BFF34F8FBFF3FB
:102240006F8FFEE7704700008800002004ED00E07B
:102250000849486828B1401E486001D180F31188C0
:102260007047502080F31188BFF34F8FBFF36F8FFB
:10227000FEE700008800002070B5002827D0144D2C
:10228000A0F108046168E868014207D1502080F39A
:102290001188BFF34F8FBFF36F8FFEE722683AB10B
:1022A000502080F31188BFF34F8FBFF36F8FFEE78D
:1022B0008143616000F0BEF9606869680844686045
:1022C0002046FFF7B1FBBDE8704000F01BBF70BDBA
:1022D000700000204FF0E02000210161816105497C
:1022E0004FF47A720968B1FBF2F1491E416107218E
:1022F000016170471000002010B5FDF74BFF114938
:1023000010280ED300F1E02090F8F0030A789042F4
:1023100007D2502080F31188BFF34F8FBFF36F8F28
:10232000FEE709480068896800F4E060884207D940
:10233000502080F31188BFF34F8FBFF36F8FFEE7FC
:1023400010BD0000880000200CED00E010B5084B27
:10235000002200BF53F832401CB1521C082AF9D3A6
:1023600010BD43F8321003EBC201486010BD0000FD
:102370003801002070B515460E460446FFF748FFA9
:1023800094F944100020491C01D184F8440094F9C8
:102390004510491C01D184F84500FFF759FFA06B97
:1023A00028B92A46314604F1240000F099F8204665
:1023B000BDE87040FFF7FEBC10B5020014D00F4816
:1023C000806B38B1502080F31188BFF34F8FBFF37B
:1023D0006F8FFEE700F02EF900211046FFF746F957
:1023E00000F090FE002807D105494FF080500860AA
:1023F000BFF34F8FBFF36F8F10BD0000140000209C
:1024000004ED00E070B50546FFF702FF1E4C05B96C
:102410002568281DFFF7A0FEA86A18B105F118006D
:10242000FFF79AFEE06A401CE0622068854207D10F
:10243000291D1648FFF7E0FEE068401CE06007E059
:102440002069401E20612846FFF71BFAFFF732FC87
:10245000FFF7FEFEE069002814D02068854211D104
:10246000A06B38B1502080F31188BFF34F8FBFF3BA
:102470006F8FFEE706494FF080500860BFF34F8F23
:10248000BFF36F8F70BD0000140000201406002001
:1024900004ED00E002498A6A0260496941607047C0
:1024A00014000020014901204862704714000020F8
:1024B00010B50C4650B1094909681831FFF784FE80
:1024C0002046BDE810400121FFF7D0B8502080F32E
:1024D0001188BFF34F8FBFF36F8FFEE7140000200A
:1024E00070B514460D4668B10A4909681831FFF7FE
:1024F00083FE0CB14FF0FF3521462846BDE8704001
:10250000FFF7B4B8502080F31188BFF34F8FBFF3AB
:102510006F8FFEE71400002070B504003ED0226DDE
:10252000A2B1E06C884200D30146E06A884235D00F
:10253000012A33D11A4D2A6894420FD1502080F3DA
:102540001188BFF34F8FBFF36F8FFEE7502080F3EA
:102550001188BFF34F8FBFF36F8FFEE7E162A2696F
:10256000002A02DBC1F13801A1610E4E00EB8000B0
:10257000616906EB8000814210D1201DFFF7ECFD60
:10258000E06AA969884200D9A86100EB800006EBE7
:102590008000211DBDE87040FFF72EBE70BD000019
:1025A000140000207801002030B587B00024039487
:1025B00005AA04A903A80494FFF7E2FDDDE90301DD
:1025C0000094CDE90110002316A11848059A00F0E7
:1025D00042FC174D0028686321D000F0F5FD01286A
:1025E00009D0401C1BD1502080F31188BFF34F8FBE
:1025F000BFF36F8FFEE7502080F31188BFF34F8F3A
:10260000BFF36F8F4FF0FF3028630120E8616C61EA
:10261000FEF7C8FE07B0BDE8304000F051B807B083
:1026200030BD000049444C45000000000519000879
:10263000140000200248816B491C81637047000030
:102640001400002010B51C4CA06B10B1012060627A
:1026500010BD00206062FEF74FFF2064E26B9042E5
:1026600004D92168821A4B6D1A444A65E063A06957
:10267000124901E0B8B1401E00EB800251F822205F
:10268000002AF7D000EB800201EB820101F1080380
:102690004A6852684A609A4201D152684A60D168D9
:1026A0002160A06110BD502080F31188BFF34F8FCF
:1026B000BFF36F8FFEE700001400002078010020B8
:1026C0001CB5264908780190FF20087008788DF81D
:1026D00000009DF800009DF8002000F0F0009042FE
:1026E00007D0502080F31188BFF34F8FBFF36F8F57
:1026F000FEE79DF800001A4B00F05000187007200C
:10270000986005E09DF8002052008DF80020401EE2
:102710009DF800201206F5D49860032807D05020B9
:1027200080F31188BFF34F8FBFF36F8FFEE74FF435
:1027300040709860019808700A48016841F470017F
:102740000160016841F070410160FFF7C3FD0020A6
:102750005860FDF7E9FC00201CBD000000E400E02B
:102760008800002020ED00E0F8B517460E46050071
:1027700014D0DEB105FB06F05430FFF757FB040020
:102780000AD0002084F8460004F154023B4631464A
:1027900028460094FFF7E6F82046F8BD502080F365
:1027A0001188BFF34F8FBFF36F8FFEE70020E3E781
:1027B00038B5049D18B153B1CAB181B120E05020A1
:1027C00080F31188BFF34F8FBFF36F8FFEE7502068
:1027D00080F31188BFF34F8FBFF36F8FFEE7502058
:1027E00080F31188BFF34F8FBFF36F8FFEE739B1CE
:1027F000502080F31188BFF34F8FBFF36F8FFEE738
:1028000054241C46012384F846302B460094FFF7DD
:10281000A9F8204638BD000070B50D46040025D04B
:10282000FFF7F6FCD4E90F20216802FB001161607C
:102830000021A1632168A1600A46D4E90F01401E6E
:1028400000FB0121E16021464FF0FF3001F8440F09
:10285000487004F110008DB1FFF7A8FC04F12400CA
:10286000FFF7A4FCFFF7F4FC012070BD502080F3BB
:102870001188BFF34F8FBFF36F8FFEE721690029E7
:10288000F0D000F007FC0028ECD004494FF0805055
:102890000860BFF34F8FBFF36F8FE3E704ED00E0F5
:1028A0002DE9FF4782B01D468A464FF0000804001C
:1028B00003D0BAF1000F08D011E0502080F3118846
:1028C000BFF34F8FBFF36F8FFEE7206C38B15020FE
:1028D00080F31188BFF34F8FBFF36F8FFEE7022D98
:1028E0000AD1E06B012807D0502080F31188BFF394
:1028F0004F8FBFF36F8FFEE700F0D8FA424F4FF0D3
:1029000000094FF0805648B9049838B1502080F340
:102910001188BFF34F8FBFF36F8FFEE7FFF778FC8F
:10292000A06BE16B884207D3022D05D0049808B351
:10293000B8F1000F21D025E02A4651462046FEF787
:102940006AFFA16C21B129462046FFF7BDF805E0DA
:10295000616A19B104F1240000F09CFB20B13E60D3
:10296000BFF34F8FBFF36F8FFFF772FC012006B0EC
:10297000BDE8F087FFF76CFC22E06846FFF78AFDB0
:102980004FF00108FFF764FCFFF754FEFFF740FC2F
:1029900094F94400401C01D184F8449094F9450016
:1029A000401C01D184F84590FFF752FC04A9684609
:1029B00000F0EAF930B12046FFF7FCF900F0A2FB85
:1029C0000020D4E7FFF724FCA06BE16B884213D111
:1029D000FFF73EFC04F110000499FFF769FD204663
:1029E000FFF7E8F900F08EFB002897D13E60BFF3B7
:1029F0004F8FBFF36F8F91E7FFF72AFC2046FFF759
:102A0000D9F900F07FFB89E704ED00E02DE9F047FC
:102A1000984617468946040003D0B9F1000F08D044
:102A200011E0502080F31188BFF34F8FBFF36F8FF9
:102A3000FEE7206C38B1502080F31188BFF34F8F30
:102A4000BFF36F8FFEE7B8F1020F0AD1E06B0128E8
:102A500007D0502080F31188BFF34F8FBFF36F8FE3
:102A6000FEE7FFF749FC5020EFF3118680F3118851
:102A7000BFF34F8FBFF36F8FA06BE16B884207D31B
:102A8000B8F1020F04D0002086F31188BDE8F0876A
:102A900094F94550424649462046FEF7BCFE681C64
:102AA00004D06D1C84F845500120EDE7A06C012591
:102AB00020B141462046FFF707F806E0606A00288B
:102AC000F2D004F1240000F0E5FA0028ECD0002F49
:102AD000EAD03D60E8E700002DE9F747002683B023
:102AE0008A46040003D0BAF1000F08D011E050204C
:102AF00080F31188BFF34F8FBFF36F8FFEE7206C19
:102B000038B1502080F31188BFF34F8FBFF36F8F20
:102B1000FEE700F0CBF9DFF8F4804FF000094FF04A
:102B2000805748B9059838B1502080F31188BFF319
:102B30004F8FBFF36F8FFEE7FFF76AFBA56BC5B141
:102B400051462046FEF754FE6D1EA563206950B124
:102B500004F1100000F09EFA28B1C8F80070BFF32D
:102B60004F8FBFF36F8FFFF773FB012006B0BDE8F7
:102B7000F087059808B11EB106E0FFF769FB27E072
:102B80006846FFF787FC0126FFF762FBFFF752FD5F
:102B9000FFF73EFB94F94400401C01D184F84490B7
:102BA00094F94500401C01D184F84590FFF750FB93
:102BB00005A9684600F0E8F8002820460AD0FFF78B
:102BC000F9F800F09FFA2046FEF770FF0028B3D016
:102BD0000020CBE7FEF76AFF90B104F124000599CD
:102BE000FFF766FC2046FFF7E5F800F08BFA0028B7
:102BF000A2D1C8F80070BFF34F8FBFF36F8F9BE770
:102C00002046FFF7D7F800F07DFA95E704ED00E0E5
:102C10002DE9F343002683B00400354609D0206C2B
:102C200078B1502080F31188BFF34F8FBFF36F8FBF
:102C3000FEE7502080F31188BFF34F8FBFF36F8FF3
:102C4000FEE700F033F9DFF83C814FF000094FF068
:102C5000805748B9049838B1502080F31188BFF3E9
:102C60004F8FBFF36F8FFEE7FFF7D2FAA06BC8B1AB
:102C7000401EA063206810B9FFF744F96060206926
:102C800050B104F1100000F005FA28B1C8F8007046
:102C9000BFF34F8FBFF36F8FFFF7DAFA012005B054
:102CA000BDE8F083049808B166B10FE03DB1502053
:102CB00080F31188BFF34F8FBFF36F8FFEE7FFF7ED
:102CC000C7FA5DE06846FFF7E5FB0126FFF7C0FAAB
:102CD000FFF7B0FCFFF79CFA94F94400401C01D1C7
:102CE00084F8449094F94500401C01D184F8459043
:102CF000FFF7AEFA04A9684600F046F8002820461F
:102D000012D0FFF757F800F0FDF92046FEF7CEFE8F
:102D10000028A9D09DB3FFF77BFA606A50B3206BFF
:102D20000068C0F1380126E0FEF7C0FEE0B120687F
:102D300038B9FFF76DFA606800F070F90546FFF7E3
:102D400087FA04F124000499FFF7B2FB2046FFF74D
:102D500031F800F0D7F9002886D1C8F80070BFF329
:102D60004F8FBFF36F8F7FE72046FFF723F800F008
:102D7000C9F979E700216068FFF7CEFB9FE7FFE71D
:102D800000208CE704ED00E02DE9F0410C46050041
:102D900011D0C4B1FFF73CFA174B5A696E6820682E
:102DA000911B471C17D02F689B6A9F4219D09642EF
:102DB00017D8012410E0502080F31188BFF34F8F03
:102DC000BFF36F8FFEE7502080F31188BFF34F8F62
:102DD000BFF36F8FFEE70024FFF73AFA2046BDE805
:102DE000F081884205D9401A20602846FFF752FB3F
:102DF000F1E700202060DCE7140000202DE9FF5FF0
:102E00008346DDE90E87994616468A469000FFF70D
:102E10000DF805001CD06020FFF708F8040014D05E
:102E20000020256384F85D00CDE90240CDE90087EC
:102E30004B46324651465846FEF7A7FD2046FEF760
:102E400043FC012004B0BDE8F09F2846FFF714FAC8
:102E50004FF0FF30F6E7F0B585B0DDE90B640A9D71
:102E6000A6B1DCB1602700972663022684F85D6076
:102E7000002604AFCDE90246CDE90057FEF785FDF7
:102E80002046FEF721FC049805B0F0BD502080F3E9
:102E90001188BFF34F8FBFF36F8FFEE7502080F391
:102EA0001188BFF34F8FBFF36F8FFEE70548C169ED
:102EB00019B1806B18B100207047012070470220C3
:102EC000704700001400002001484069704700006E
:102ED000140000202DE9F0412E4C0027A06B40B1DA
:102EE000206A401C2062606A00B101273846BDE8B4
:102EF000F0816669761C666113D16068006838B13C
:102F0000502080F31188BFF34F8FBFF36F8FFEE720
:102F10006068A1686160A060A06A401CA062FEF7C2
:102F2000C9FE206BDFF87080864209D360680068B4
:102F300080B16068C068C568686886420DD2206349
:102F40002068C06A00EB800158F821000128CAD926
:102F50000127C8E74FF0FF30F1E7281DFFF7FCF825
:102F6000A86A18B105F11800FFF7F6F8E86AA16938
:102F7000884200D9A06100EB800108EB8100291D87
:102F8000FFF73AF9E86A2168C96A8842CED3012777
:102F9000CCE70000140000207801002070B5040088
:102FA0004FF0000133D01B4D2868844207D05020D9
:102FB00080F31188BFF34F8FBFF36F8FFEE7206D53
:102FC00038B1401E2065E36CE26A9A421FD040B1DE
:102FD0001DE0502080F31188BFF34F8FBFF36F8F38
:102FE000FEE7201DFFF7B8F8E06CE062C0F13800A2
:102FF000A061E06AA969884200D9A861064900EB8E
:10300000800001EB8000211DFFF7F6F80121084642
:1030100070BD0000140000207801002070B504008D
:103020004FF000002BD0194DE16A2A68D26A914214
:1030300026D2A069002804DB2868C06AC0F13800E5
:10304000A061134E01EB8101606906EB81018842AA
:1030500011D1201DFFF780F82868C06AE062A969D5
:10306000884200D9A86100EB800006EB8000211D9A
:10307000FFF7C2F802E02868C06AE062012070BD74
:10308000E16C2A68D26A9142F8D370BD1400002026
:103090007801002070B5C068C46854B104F118000C
:1030A0000646FFF759F8144DA86B50B13146134846
:1030B00015E0502080F31188BFF34F8FBFF36F8F5F
:1030C000FEE7201DFFF748F8E06AA969884200D9A9
:1030D000A8610B4900EB800001EB8000211DFFF788
:1030E0008BF8E06A2968C96A884202D901206862BF
:1030F00070BD002070BD00001400002000060020FC
:10310000780100202DE9F0472C4D00242746A86BBC
:1031100038B1FFF77DF8A86B401EA863A86B40B1DB
:1031200046E0502080F31188BFF34F8FBFF36F8FBD
:10313000FEE72969224E0120D1B3A6F591698046A8
:103140003068E0B1F068C46804F11800FFF704F8D3
:10315000201DFFF701F8E06AA969884200D9A8613B
:1031600000EB800109EB8100211DFFF745F8E06AC3
:103170002968C96A8842E3D3C5F82480E0E70CB126
:10318000FEF798FD2C6A4CB14FEA0806FFF7A2FE45
:1031900000B16E62641EF9D100202862686A38B1FD
:1031A0000849012738070860BFF34F8FBFF36F8FBF
:1031B000FFF74EF83846BDE8F08700001400002005
:1031C0000006002004ED00E010B586B0FEF7E4FA3A
:1031D000114CA068B8B100200390049005AA04A97E
:1031E00003A8FEF7D7FFDDE9032102208DE80700E1
:1031F00000230AA10B48059AFFF72DFEE06010B1ED
:1032000006B0012010BD502080F31188BFF34F8F0E
:10321000BFF36F8FFEE7000058000020546D72204E
:1032200053766300911D00082DE9FF411E461346A9
:1032300002000A9D4FF0000016D0144CA768002F22
:103240000FD0CDE900130292062917DAFFF72EFE00
:1032500002284FF000030FD000226946A068FFF754
:103260001FFB04B0BDE8F081502080F31188BFF34C
:103270004F8FBFF36F8FFEE72A46EEE700233246FB
:1032800069463846FFF7C2FBEBE700005800002014
:10329000E032000800000000000000000000000014
:1032A0000000000000020000180000000000000004
:1032B00000000000010202030405060708090A0BCA
:1032C0000C0D0E0F101000000000000000000102A5
:1032D00003040607080900000000010203040000BF
:1032E00064656661756C745461736B000C3300081F
:1032F00000000020A8000000CC110008B433000832
:10330000A800002070210000DC110008000000006F
:103310000100000010000000000000000024F40084
:10332000000000000000000000000000000000009D
:10333000000000000000000000000000000000008D
:10334000000000000000000000000000000000007D
:10335000000000000000000000000000000000006D
:10336000000000000000000000000000000000005D
:10337000000000000000000000000000000000004D
:10338000000000000000000000000000000000003D
:103390000000000000000000AAAAAAAA0000000085
:1033A000000000000000000000000000000000001D
:0433B0000000000019
:04000005080000ED02
:00000001FF
